:020000040800F2
:1000000000500020ED110008191000082110000810
:100010002910000831100008391000080000000005
:100020000000000000000000000000004110000877
:100030004D1000080000000059100008651000086D
:100040003512000835120008351200083512000874
:100050003512000835120008351200083512000864
:100060003512000835120008351200083512000854
:100070003512000835120008351200083512000844
:100080003512000835120008351200083512000834
:100090003512000835120008351200083512000824
:1000A0003512000835120008351200083512000814
:1000B0003512000835120008351200083512000804
:1000C00035120008351200083512000835120008F4
:1000D00035120008351200083512000835120008E4
:1000E0003512000835120008351200080000000023
:1000F0000000000000000000000000000000000000
:0C01000000000000000000005FF808F1A3
:10010C0010B5054C237833B9044B13B10448AFF345
:10011C0000800123237010BD80000020000000002F
:10012C00EC77000808B5034B1BB103490348AFF348
:10013C00008008BD0000000084000020EC7700085F
:10014C0080B500AF00221021034801F05DFB0120B7
:10015C0001F0CEF800BF80BD0008014080B500AFB3
:10016C0001221021034801F04FFB012001F0C0F8DF
:10017C0000BF80BD0008014080B582B000AF0346CF
:10018C00FB7100BF084B1B689B6803F00203022B3A
:10019C00F8D1F91D64230122034801F0C9FF00BF07
:1001AC000837BD4680BD00BFD810002080B582B096
:1001BC0000AF78600B467B8000BF084B1B689B68C8
:1001CC0003F00203022BF8D17A8864237968034880
:1001DC0001F0AEFF00BF0837BD4680BDD81000202F
:1001EC0080B584B002AFFF23FB7100BF094B1B68C5
:1001FC009B6803F00203022BF8D1BA1DF91D64238E
:10020C0000930123034802F0D6F8BB79184608374F
:10021C00BD4680BDD810002080B582B000AF78609C
:10022C00FFF7DEFF03461A467B681A7000BF0837DB
:10023C00BD4680BD80B582B000AF0A4B4FF4FA7258
:10024C001A80FFF7CDFF0346FB71FB79FF2B03D020
:10025C00044B1B88002BF4D1FB7918460837BD469C
:10026C0080BD00BF9E00002080B584B000AF41F679
:10027C00FF73FB60FFF772FF0023BB6005E0FF20FC
:10028C00FFF77AFFBB680133BB60BB68092BF6DD57
:10029C00FFF756FF40233B7000237B700023BB709D
:1002AC000023FB7000233B7195237B713B46062199
:1002BC001846FFF77BFF02E0FB68013BFB60FFF792
:1002CC008FFF0346012B02D0FB68002BF4D1FFF704
:1002DC0045FFFF20FFF750FF034B01221A7000BFB0
:1002EC001037BD4680BD00BFA100002080B400AF18
:1002FC00034B00221A7000BFBD4680BC704700BF84
:10030C00A100002080B400AF024B1B781846BD46FC
:10031C0080BC7047A100002080B584B000AF78602D
:10032C003960134BC8221A80FFF75AFF0346FB7340
:10033C00FB7BFF2B03D10E4B1B88002BF4D1FB7BDB
:10034C00FE2B01D000230FE07B685A1C7A60184604
:10035C00FFF762FF3B685A1E3A60002BF4D1FFF79F
:10036C003FFFFFF73DFF012318461037BD4680BD08
:10037C009C00002080B584B000AF78600B46FB7009
:10038C000023BB73FFF756FF0346FF2B01D000235E
:10039C002FE0FB781846FFF7EFFEFB78FD2B20D003
:1003AC004FF400717868FFF701FFFFF719FFFFF7B3
:1003BC0017FF0BE0FFF714FF0346FB73FB7B03F007
:1003CC001F03052B06D0BB7B0133BB73BB7B402BC0
:1003DC00F0D900E000BF00BFFFF702FF0346002B7F
:1003EC00FAD0FB7B03F01F03052B01D1012300E0A6
:1003FC00002318461037BD4680BD80B584B000AFD1
:10040C0003463960FB71FFF715FF0346FF2B01D044
:10041C00FF2342E0FB791846FFF7AEFE3B681B0E4C
:10042C00DBB21846FFF7A8FE3B681B0CDBB2184684
:10043C00FFF7A2FE3B681B0ADBB21846FFF79CFED7
:10044C003B68DBB21846FFF797FEFB79402B02D1D5
:10045C009523FB7307E0FB79482B02D18723FB73B1
:10046C0001E00123FB73FB7B1846FFF785FEFB794C
:10047C004C2B01D1FFF7B4FE0A23BB73FFF7B0FE80
:10048C0003467B7397F90D30002B05DABB7B013BE0
:10049C00BB73BB7B002BF1D17B7B18461037BD4661
:1004AC0080BD000090B585B000AF0346FB71FB79B1
:1004BC00002B01D00123D1E06A4B1B78DBB203F097
:1004CC000203002B03D0674B1B78DBB2C6E0FFF7AF
:1004DC00CBFEFFF735FE0023BB7300214020FFF756
:1004EC008CFF0346012B40F0A1805F4B4FF47A72D6
:1004FC001A804FF4D5714820FFF77FFF0346012B7C
:10050C0055D10023FB730CE0FC7BFFF769FE03461F
:10051C001A4604F110033B4403F8082CFB7B01330F
:10052C00FB73FB7B032BEFD9BB7A012B7ED1FB7AC0
:10053C00AA2B7BD100217720FFF75FFF0346012B0D
:10054C0007D84FF080416920FFF757FF0346002B77
:10055C0004D0454B1B88002BECD100E000BF424B74
:10056C001B88002B62D000217A20FFF746FF034640
:10057C00002B5BD10023FB730CE0FC7BFFF730FE00
:10058C0003461A4604F110033B4403F8082CFB7B8A
:10059C000133FB73FB7B032BEFD93B7A03F0400356
:1005AC00002B01D00C2300E00423BB733EE00021A0
:1005BC007720FFF722FF0346012B08D80021692082
:1005CC00FFF71BFF0346012B01D8022300E0012398
:1005DC00BB73BB7B022B0ED100217720FFF70DFFE5
:1005EC000346012B0ED800216920FFF706FF0346B6
:1005FC00002B07D10CE000214120FFF7FEFE034643
:10060C00002B04D0184B1B88002BE2D100E000BF5C
:10061C00154B1B88002B07D04FF400715020FFF7AF
:10062C00ECFE0346002B01D00023BB730F4ABB7BAF
:10063C001370FFF793FDFFF7D3FDBB7B002B08D0A6
:10064C00084B1B78DBB223F00103DAB2054B1A70AE
:10065C0001E0FFF74BFE034B1B78DBB21846143757
:10066C00BD4690BD000000209C000020A000002092
:10067C0080B483B000AF0346FB71FB79002B01D033
:10068C00012302E0034B1B78DBB218460C37BD4646
:10069C0080BC70470000002080B584B000AFB9600A
:1006AC007A603B600346FB73FB7B002B02D13B68FB
:1006BC00002B01D1042351E02A4B1B78DBB203F051
:1006CC000103002B01D0032348E0274B1B7803F0D8
:1006DC000403002B02D17B685B027B60FFF730FDCB
:1006EC003B68012B11D179685120FFF786FE034638
:1006FC00002B29D14FF40071B868FFF70DFE0346AB
:10070C00002B21D000233B601EE079685220FFF7BC
:10071C0074FE0346002B17D14FF40071B868FFF735
:10072C00FBFD0346002B0AD0BB6803F50073BB60CE
:10073C003B68013B3B603B68002BEDD100E000BF08
:10074C0000214C20FFF759FEFFF708FDFFF748FD8D
:10075C003B68002B14BF01230023DBB21846103773
:10076C00BD4680BD00000020A000002080B584B0F4
:10077C0000AFB9607A603B600346FB73FB7B002BD8
:10078C0002D13B68002B01D104236BE0374B1B7863
:10079C00DBB203F00103002B01D0032362E0334BE7
:1007AC001B78DBB203F00403002B01D0022359E0C9
:1007BC002F4B1B7803F00403002B02D17B685B02E8
:1007CC007B60FFF7BDFC3B68012B10D1796858208A
:1007DC00FFF713FE0346002B3AD1FE21B868FFF752
:1007EC00C9FD0346002B33D000233B6030E0204B87
:1007FC001B7803F00203002B07D000217720FFF7B2
:10080C00FCFD39685720FFF7F8FD79685920FFF790
:10081C00F4FD0346002B1BD1FC21B868FFF7AAFDA1
:10082C000346002B0AD0BB6803F50073BB603B6822
:10083C00013B3B603B68002BEED100E000BFFD218B
:10084C000020FFF797FD0346002B01D101233B60ED
:10085C00FFF784FCFFF7C4FC3B68002B14BF01239B
:10086C000023DBB218461037BD4680BD00000020C7
:10087C00A000002090B58BB000AF03463A60FB712E
:10088C000B46BB713B683B62FB79002B01D0042308
:10089C0013E1012387F82730BB79052B24D13B6A60
:1008AC001B78022B12D0022B1ADC002B02D0012B4E
:1008BC0006D015E0FFF71AFD002387F82730FAE081
:1008CC00FFF7D2FC002387F82730F4E03B6A5C1C6E
:1008DC00FFF718FD03462370002387F82730EAE062
:1008EC00042387F82730E6E0764B1B78DBB203F065
:1008FC000103002B01D00323DFE0FFF721FCBB79C0
:10090C000D2B00F2C98001A252F823F00F0A000847
:10091C0051090008FF090008A50A0008A50A0008EB
:10092C00A50A0008A50A0008A50A0008A50A0008DF
:10093C00A50A0008A50A0008210A0008450A0008B3
:10094C00690A000800214920FFF757FD0346002BD8
:10095C0040F0A68007F10C0310211846FFF7DCFCD1
:10096C000346002B00F09C803B7B9B09DBB2012BE8
:10097C000DD17B7D1A463B7D1B029BB213449BB26F
:10098C000133FB83FB8B9A023B681A602DE07B7C66
:10099C0003F00F03DAB2BB7DDB09DBB21344DAB22E
:1009AC007B7D5B00DBB203F00603DBB21344DBB2EE
:1009BC00023387F826303B7D9B09DBB21A46FB7C61
:1009CC009B009BB213449AB2BB7C9B029BB203F478
:1009DC0040639BB213449BB20133FB83FA8B97F8B1
:1009EC002630093B9A403B681A60002387F8273071
:1009FC0056E03B684FF400721A80002387F82730CA
:100A0C0055E0FFF717FC0346FF2B4BD1002387F86B
:100A1C00273047E000214920FFF7EFFC0346002B6D
:100A2C0042D11021386AFFF777FC0346002B3BD0EC
:100A3C00002387F8273037E000214A20FFF7DDFC40
:100A4C000346002B32D11021386AFFF765FC0346B0
:100A5C00002B2BD0002387F8273027E000217A20A9
:100A6C00FFF7CBFC0346002B16D1002387F826306A
:100A7C000BE03C6A631C3B62FFF7B2FB034623703E
:100A8C0097F82630013387F8263097F82630032B59
:100A9C00EFD9002387F82730042387F8273006E0A6
:100AAC0000BF04E000BF02E000BF00E000BFFFF7A2
:100ABC0055FBFFF795FB97F8273018462C37BD46AA
:100ACC0090BD00BF0000002080B500AF00F0AEFB71
:100ADC0000F09AF800F00AF900F0D2F801F0C2FE2A
:100AEC0000223949394804F091FB0346002B01D010
:100AFC0000F050F9364A3749002000F051F93648D9
:100B0C0000F0C6F90346012B03D1344805F050FF21
:100B1C0002E0334805F04CFF4FF40051314800F02F
:100B2C008BFEC82000F0E4FB2F4B1B68062B3BD838
:100B3C0001A252F823F000BF610B00086D0B0008F6
:100B4C00790B0008850B0008910B00089D0B000821
:100B5C00A90B00081E4A2549012000F021F926E0C6
:100B6C001B4A2349022000F01BF920E0184A2149B6
:100B7C00032000F015F91AE0154A1F49042000F073
:100B8C000FF914E0124A1D49052000F009F90EE096
:100B9C000F4A1B49062000F003F908E00C4A1949DA
:100BAC00072000F0FDF802E000F0F4F800BF0E4B57
:100BBC001B6801330C4A13600B4B1B68072BABD122
:100BCC00094B00221A60A7E704780008A80000204F
:100BDC000878000814780008247800083078000899
:100BEC005078000800100140A40000207478000820
:100BFC0088780008A4780008B8780008CC78000839
:100C0C00DC780008F478000880B590B000AF07F1EC
:100C1C00180328220021184605F0DEFF3B1D002298
:100C2C001A605A609A60DA601A610223BB61012370
:100C3C00BB621023FB6200237B6307F11803184689
:100C4C0000F014FE0346002B01D000F0A3F80F2394
:100C5C007B600023BB600023FB6000233B6100230F
:100C6C007B613B1D0021184601F082F80346002BE6
:100C7C0001D000F08FF800BF4037BD4680BD0000AA
:100C8C0080B500AF174B184A1A60164B4FF482729E
:100C9C005A60144B00229A60124B0022DA60114BFE
:100CAC0000221A610F4B00225A610E4B4FF4007256
:100CBC009A610C4B0022DA610A4B00221A62094B32
:100CCC0000225A62074B00229A62064B0A22DA6211
:100CDC00044801F0A9F90346002B01D000F05AF8A2
:100CEC0000BF80BDD81000200030014080B586B018
:100CFC0000AF07F1080300221A605A609A60DA60AC
:100D0C00214B9B69204A43F0100393611E4B9B6956
:100D1C0003F010037B607B681B4B9B691A4A43F002
:100D2C0004039361184B9B6903F004033B603B681D
:100D3C0000224FF40051154800F066FD00221021EE
:100D4C00134800F061FD4FF40053BB600123FB60BE
:100D5C0000233B6102237B6107F1080319460B4812
:100D6C0000F0CEFB1023BB600123FB6000233B6132
:100D7C0002237B6107F108031946054800F0C0FB0C
:100D8C0000BF1837BD4680BD001002400010014066
:100D9C000008014080B400AF72B600BF00BFFDE791
:100DAC0080B5ADF58A5D82B002AF07F5A073A3F5EF
:100DBC009A73186007F5A073A3F59C73196007F577
:100DCC00A073A3F59E731A6007F590730C3B122267
:100DDC002D49184604F064FA0346002B02D0FFF7A5
:100DEC00D9FF4CE007F5A073D3F8E02F07F590730B
:100DFC000C3B1146184605F099F80346002B08D019
:100E0C0007F590730C3B184605F065F8FFF7C2FF29
:100E1C0035E007F5A073A3F59A7307F120000C38A1
:100E2C0007F5A072A2F59E721268019207F5A072E6
:100E3C00A2F59C72126800921B68144A4FF48071E0
:100E4C0005F0BEFD07F590720C3A07F120030C3B40
:100E5C001146184605F098FB0346B3F1FF3F08D145
:100E6C0007F590730C3B184605F035F8FFF792FF29
:100E7C0005E007F590730C3B184605F02CF807F5C8
:100E8C008A57BD4680BD00BF0C7900081879000850
:100E9C0080B5ADF5815D86B000AF07F1380343F83E
:100EAC00340C07F13803194607F11803103B1222D2
:100EBC0051F8341C184604F0F3F9034607F5815237
:100ECC0002F11702137007F5815303F117031B7816
:100EDC00002B01D0002316E007F1380393F8D63F1E
:100EEC0003F00203002B07D107F11803103B18463F
:100EFC0004F0F1FF002306E007F11803103B18463D
:100F0C0004F0E9FF0123184607F581571837BD4651
:100F1C0080BD000080B485B000AF154B9B69144AAE
:100F2C0043F001039361124B9B6903F00103BB6017
:100F3C00BB680F4BDB690E4A43F08053D3610C4BFB
:100F4C00DB6903F080537B607B680A4B5B68FB605A
:100F5C00FB6823F0E063FB60FB6843F00073FB600D
:100F6C00044AFB68536000BF1437BD4680BC704711
:100F7C00001002400000014080B588B000AF7860DE
:100F8C0007F1100300221A605A609A60DA607B68DD
:100F9C001B681B4A93422FD11A4B9B69194A43F485
:100FAC0080539361174B9B6903F48053FB60FB6880
:100FBC00144B9B69134A43F004039361114B9B69D7
:100FCC0003F00403BB60BB68A0233B6102237B617D
:100FDC000323FB6107F1100319460B4800F090FA4C
:100FEC0040233B6100237B610023BB6107F11003AD
:100FFC001946054800F084FA00BF2037BD4680BD75
:10100C0000300140001002400008014080B400AFE5
:10101C0000BFFDE780B400AF00BFFDE780B400AFB8
:10102C0000BFFDE780B400AF00BFFDE780B400AFA8
:10103C0000BFFDE780B400AF00BFBD4680BC704769
:10104C0080B400AF00BFBD4680BC704780B400AF19
:10105C0000BFBD4680BC704780B500AF0B4B1B88F2
:10106C00002B05D0094B1B88013B9AB2074B1A8009
:10107C00074B1B88002B05D0054B1B88013B9AB2F4
:10108C00034B1A8000F018F900BF80BD9C000020B3
:10109C009E00002080B586B000AFF860B9607A6021
:1010AC0000237B610AE0AFF300800146BB685A1C49
:1010BC00BA60CAB21A707B6901337B617A697B684A
:1010CC009A42F0DB7B6818461837BD4680BD80B568
:1010DC0086B000AFF860B9607A6000237B6109E0EC
:1010EC00BB685A1CBA601B781846AFF300807B694A
:1010FC0001337B617A697B689A42F1DB7B68184625
:10110C001837BD4680BD80B483B000AF78604FF017
:10111C00FF3318460C37BD4680BC704780B483B093
:10112C0000AF786039603B684FF400525A6000237E
:10113C0018460C37BD4680BC704780B483B000AFF6
:10114C007860012318460C37BD4680BC704780B4CC
:10115C0085B000AFF860B9607A6000231846143788
:10116C00BD4680BC7047000080B586B000AF78608B
:10117C00144A154BD31A7B617B693B61134B1B687B
:10118C00002B02D1114B124A1A60104B1A687B6863
:10119C0013443A699A4207D205F06CFD03460C22BF
:1011AC001A604FF0FF3309E0084B1B68FB60074BDC
:1011BC001A687B681344054A1360FB681846183795
:1011CC00BD4680BD005000200004000030110020FE
:1011DC00B814002080B400AF00BFBD4680BC70477F
:1011EC00FFF7F8FF0B480C490C4A002302E0D458D7
:1011FC00C4500433C4188C42F9D3094A094C002357
:10120C0001E013600432A242FBD305F039FDFFF775
:10121C005BFC704700000020800000201C7F000851
:10122C0080000020B8140020FEE7000080B500AF5D
:10123C00084B1B68074A43F010031360032000F0AF
:10124C002BF90F2000F008F8FFF764FE0023184676
:10125C0080BD00BF0020024080B582B000AF786036
:10126C00124B1A68124B1B7819464FF47A73B3FB66
:10127C00F1F3B2FBF3F3184600F035F90346002BFB
:10128C0001D001230EE07B680F2B0AD8002279686D
:10129C004FF0FF3000F00BF9064A7B681360002317
:1012AC0000E0012318460837BD4680BD040000202D
:1012BC000C0000200800002080B400AF054B1B7808
:1012CC001A46054B1B681344034A136000BFBD4606
:1012DC0080BC70470C0000203411002080B400AF9B
:1012EC00024B1B681846BD4680BC70473411002069
:1012FC0080B584B000AF7860FFF7F0FFB8607B6812
:10130C00FB60FB68B3F1FF3F05D00A4B1B781A4614
:10131C00FB681344FB6000BFFFF7E0FF0246BB68AD
:10132C00D31AFA689A42F7D800BF00BF1037BD46EF
:10133C0080BD00BF0C00002080B485B000AF786089
:10134C007B6803F00703FB600C4BDB68BB60BA687F
:10135C004FF6FF031340BB60FB681A02BB681343D4
:10136C0043F0BF6343F40033BB60044ABB68D360F3
:10137C0000BF1437BD4680BC704700BF00ED00E0D5
:10138C0080B400AF044BDB681B0A03F0070318465C
:10139C00BD4680BC704700BF00ED00E080B483B058
:1013AC0000AF03463960FB7197F90730002B0ADB5D
:1013BC003B68DAB20C4997F907301201D2B20B44F0
:1013CC0083F800230AE03B68DAB20849FB7903F0A2
:1013DC000F03043B1201D2B20B441A7600BF0C3738
:1013EC00BD4680BC704700BF00E100E000ED00E0AE
:1013FC0080B489B000AFF860B9607A60FB6803F024
:10140C000703FB61FB69C3F10703042B28BF04230B
:10141C00BB61FB690433062B02D9FB69033B00E07B
:10142C0000237B614FF0FF32BB6902FA03F3DA430E
:10143C00BB681A407B699A404FF0FF317B6901FA17
:10144C0003F3D9437B680B40134318462437BD463E
:10145C0080BC704780B582B000AF78607B68013B80
:10146C00B3F1807F01D301230FE00A4A7B68013B73
:10147C0053600F214FF0FF30FFF790FF054B002218
:10148C009A60044B07221A60002318460837BD46A1
:10149C0080BD00BF10E000E080B582B000AF786086
:1014AC007868FFF749FF00BF0837BD4680BD80B59F
:1014BC0086B000AF0346B9607A60FB7300237B6192
:1014CC00FFF75EFF78617A68B9687869FFF790FF7B
:1014DC00024697F90F3011461846FFF75FFF00BF21
:1014EC001837BD4680BD80B582B000AF7860786893
:1014FC00FFF7B0FF034618460837BD4680BD000015
:10150C0080B48BB000AF7860396000237B6200231D
:10151C003B6269E101227B6A02FA03F3FB613B68DF
:10152C001B68FA691340BB61BA69FB699A4240F0C7
:10153C0058813B685B689A4A93425ED0984A9342C2
:10154C0075D8984A934258D0964A93426FD8964A87
:10155C00934252D0944A934269D8944A93424CD0C5
:10156C00924A934263D8924A934246D0904A93420D
:10157C005DD8122B2AD8122B59D801A252F823F07D
:10158C0007160008E1150008F315000835160008C9
:10159C003B1600083B1600083B1600083B160008DB
:1015AC003B1600083B1600083B1600083B160008CB
:1015BC003B1600083B1600083B1600083B160008BB
:1015CC003B160008E9150008FD150008794A9342FE
:1015DC0013D02CE03B68DB683B6229E03B68DB689E
:1015EC0004333B6224E03B68DB6808333B621FE05A
:1015FC003B68DB680C333B621AE03B689B68002B52
:10160C0002D104233B6213E03B689B68012B05D19C
:10161C0008233B627B68FA691A6109E008233B6284
:10162C007B68FA695A6103E000233B6200E000BF6B
:10163C00BB69FF2B01D87B6801E07B6804337B61BD
:10164C00BB69FF2B02D87B6A9B0002E07B6A083BDC
:10165C009B003B617B691A680F213B6901FA03F31C
:10166C00DB431A40396A3B6901FA03F31A437B697D
:10167C001A603B685B6803F08053002B00F0B1806C
:10168C004D4B9B694C4A43F0010393614A4B9B6958
:10169C0003F00103BB60BB68484A7B6A9B080233BA
:1016AC0052F82330FB607B6A03F003039B000F228C
:1016BC0002FA03F3DB43FA681340FB607B68404A91
:1016CC00934213D07B683F4A93420DD07B683E4ACD
:1016DC00934207D07B683D4A934201D1032306E035
:1016EC00042304E0022302E0012300E000237A6AD1
:1016FC0002F0030292009340FA681343FB602F49F7
:10170C007B6A9B080233FA6841F823203B685B68CC
:10171C0003F48013002B06D02D4B9A682C49BB691F
:10172C0013438B6006E02A4B9A68BB69DB4328495C
:10173C0013408B603B685B6803F40013002B06D0EE
:10174C00234BDA682249BB691343CB6006E0204B7C
:10175C00DA68BB69DB431E491340CB603B685B68AE
:10176C0003F40033002B06D0194B5A681849BB6997
:10177C0013434B6006E0164B5A68BB69DB431449B4
:10178C0013404B603B685B6803F48033002B21D023
:10179C000F4B1A680E49BB6913430B6021E000BF65
:1017AC000000321000003110000022100000211047
:1017BC000000121000001110001002400000014047
:1017CC0000080140000C01400010014000140140D1
:1017DC00000401400B4B1A68BB69DB4309491340F9
:1017EC000B607B6A01337B623B681A687B6A22FA66
:1017FC0003F3002B7FF48EAE00BF00BF2C37BD4629
:10180C0080BC70470004014080B483B000AF7860A6
:10181C000B467B8013467B707B78002B03D07A8839
:10182C007B681A6103E07B881A047B681A6100BF2D
:10183C000C37BD4680BC704780B485B000AF786073
:10184C000B467B807B68DB68FB607A88FB68134007
:10185C001A04FB68D9437B880B401A437B681A61D6
:10186C0000BF1437BD4680BC7047000080B586B001
:10187C0000AF78607B68002B01D1012372E27B689A
:10188C001B6803F00103002B00F08780924B5B6810
:10189C0003F00C03042B0CD08F4B5B6803F00C0390
:1018AC00082B12D18C4B5B6803F48033B3F5803F6B
:1018BC000BD1894B1B6803F40033002B6CD07B6875
:1018CC005B68002B68D101234CE27B685B68B3F545
:1018DC00803F06D1804B1B687F4A43F480331360F2
:1018EC002EE07B685B68002B0CD17B4B1B687A4A23
:1018FC0023F480331360784B1B68774A23F48023DE
:10190C0013601DE07B685B68B3F5A02F0CD1724BA4
:10191C001B68714A43F4802313606F4B1B686E4A3B
:10192C0043F4803313600BE06B4B1B686A4A23F45F
:10193C0080331360684B1B68674A23F48023136061
:10194C007B685B68002B13D0FFF7C8FC386108E09C
:10195C00FFF7C4FC02463B69D31A642B01D903235D
:10196C0000E25D4B1B6803F40033002BF0D014E055
:10197C00FFF7B4FC386108E0FFF7B0FC02463B69A6
:10198C00D31A642B01D90323ECE1534B1B6803F4EA
:10199C000033002BF0D100E000BF7B681B6803F024
:1019AC000203002B63D04C4B5B6803F00C03002B41
:1019BC000BD0494B5B6803F00C03082B1CD1464B36
:1019CC005B6803F48033002B16D1434B1B6803F088
:1019DC000203002B05D07B681B69012B01D001236E
:1019EC00C0E13D4B1B6823F0F8027B685B69DB00B0
:1019FC00394913430B603AE07B681B69002B20D0FC
:101A0C00364B01221A60FFF769FC386108E0FFF7DA
:101A1C0065FC02463B69D31A022B01D90323A1E1D1
:101A2C002D4B1B6803F00203002BF0D02A4B1B68D4
:101A3C0023F0F8027B685B69DB00274913430B60DA
:101A4C0015E0264B00221A60FFF748FC386108E0CD
:101A5C00FFF744FC02463B69D31A022B01D903233E
:101A6C0080E11D4B1B6803F00203002BF0D17B6857
:101A7C001B6803F00803002B3AD07B689B69002B92
:101A8C0019D0174B01221A60FFF728FC386108E0C7
:101A9C00FFF724FC02463B69D31A022B01D903231E
:101AAC0060E10D4B5B6A03F00203002BF0D00120C8
:101ABC0000F09CFA1CE00A4B00221A60FFF70EFCA7
:101ACC0038610FE0FFF70AFC02463B69D31A022B80
:101ADC0008D9032346E100BF001002400000424237
:101AEC0080044242924B5B6A03F00203002BE9D163
:101AFC007B681B6803F00403002B00F0A680002316
:101B0C00FB758B4BDB6903F08053002B0DD1884B9D
:101B1C00DB69874A43F08053D361854BDB6903F063
:101B2C008053BB60BB680123FB75824B1B6803F4BD
:101B3C008073002B18D17F4B1B687E4A43F4807353
:101B4C001360FFF7CBFB386108E0FFF7C7FB0246D9
:101B5C003B69D31A642B01D9032303E1754B1B6832
:101B6C0003F48073002BF0D07B68DB68012B06D16B
:101B7C006F4B1B6A6E4A43F0010313622DE07B68C6
:101B8C00DB68002B0CD16A4B1B6A694A23F00103FA
:101B9C001362674B1B6A664A23F0040313621CE052
:101BAC007B68DB68052B0CD1614B1B6A604A43F0E8
:101BBC00040313625E4B1B6A5D4A43F0010313621C
:101BCC000BE05B4B1B6A5A4A23F001031362584B20
:101BDC001B6A574A23F0040313627B68DB68002BF3
:101BEC0015D0FFF77BFB38610AE0FFF777FB024665
:101BFC003B69D31A41F28832934201D90323B1E0F5
:101C0C004B4B1B6A03F00203002BEED014E0FFF7E2
:101C1C0065FB38610AE0FFF761FB02463B69D31AAA
:101C2C0041F28832934201D903239BE0404B1B6A5B
:101C3C0003F00203002BEED1FB7D012B05D13C4BB5
:101C4C00DB693B4A23F08053D3617B68DB69002B53
:101C5C0000F08780364B5B6803F00C03082B61D0D7
:101C6C007B68DB69022B46D1334B00221A60FFF7ED
:101C7C0035FB386108E0FFF731FB02463B69D31AAC
:101C8C00022B01D903236DE0294B1B6803F0007371
:101C9C00002BF0D17B681B6AB3F5803F08D1244B35
:101CAC005B6823F400327B689B68214913434B60CB
:101CBC001F4B5B6823F474127B68196A7B685B6A40
:101CCC000B431B4913434B601B4B01221A60FFF75C
:101CDC0005FB386108E0FFF701FB02463B69D31AAC
:101CEC00022B01D903233DE0114B1B6803F0007359
:101CFC00002BF0D035E0104B00221A60FFF7EEFA03
:101D0C00386108E0FFF7EAFA02463B69D31A022B66
:101D1C0001D9032326E0064B1B6803F00073002B4C
:101D2C00F0D11EE07B68DB69012B07D1012319E0A0
:101D3C000010024000700040600042420B4B5B6898
:101D4C00FB60FB6803F480327B681B6A9A4206D105
:101D5C00FB6803F470127B685B6A9A4201D0012322
:101D6C0000E0002318461837BD4680BD0010024025
:101D7C0080B584B000AF786039607B68002B01D1EE
:101D8C000123D0E06A4B1B6803F007033A689A42C0
:101D9C0010D9674B1B6823F0070265493B68134356
:101DAC000B60634B1B6803F007033A689A4201D03F
:101DBC000123B8E07B681B6803F00203002B20D0E2
:101DCC007B681B6803F00403002B05D0594B5B6840
:101DDC00584A43F4E06353607B681B6803F00803C4
:101DEC00002B05D0534B5B68524A43F4605353604D
:101DFC00504B5B6823F0F0027B689B684D491343A2
:101E0C004B607B681B6803F00103002B40D07B68A0
:101E1C005B68012B07D1474B1B6803F40033002B85
:101E2C0015D101237FE07B685B68022B07D1414B06
:101E3C001B6803F00073002B09D1012373E03D4BA9
:101E4C001B6803F00203002B01D101236BE0394B1B
:101E5C005B6823F003027B685B68364913434B6075
:101E6C00FFF73CFAF8600AE0FFF738FA0246FB6825
:101E7C00D31A41F28832934201D9032353E02D4BFC
:101E8C005B6803F00C027B685B689B009A42EBD1A9
:101E9C00274B1B6803F007033A689A4210D2244B75
:101EAC001B6823F0070222493B6813430B60204B4D
:101EBC001B6803F007033A689A4201D0012332E011
:101ECC007B681B6803F00403002B08D0194B5B687C
:101EDC0023F4E0627B68DB68164913434B607B6834
:101EEC001B6803F00803002B09D0124B5B6823F42A
:101EFC0060527B681B69DB000E4913434B6000F09A
:101F0C0021F802460B4B5B681B0903F00F030A49CF
:101F1C00CB5C22FA03F3094A1360094B1B68184681
:101F2C00FFF79AF9002318461037BD4680BD00BF55
:101F3C0000200240001002406C79000804000020D0
:101F4C000800002080B487B000AF0023FB600023A2
:101F5C00BB6000237B6100237B6000233B611E4B35
:101F6C005B68FB60FB6803F00C03042B02D0082BAE
:101F7C0003D027E0194B3B6127E0FB689B0C03F077
:101F8C000F03174AD35C7B60FB6803F48033002B90
:101F9C0010D0114B5B685B0C03F00103114AD35C4E
:101FAC00BB607B680D4A03FB02F2BB68B2FBF3F328
:101FBC007B6104E07B680C4A02FB03F37B617B6969
:101FCC003B6102E0054B3B6100BF3B6918461C3787
:101FDC00BD4680BC704700BF0010024000127A0062
:101FEC007C7900088C79000800093D0080B485B02C
:101FFC0000AF78600A4B1B680A4AA2FB03235B0AFA
:10200C007A6802FB03F3FB6000BFFB685A1EFA60A0
:10201C00002BF9D100BF00BF1437BD4680BC704700
:10202C0004000020D34D621080B582B000AF786000
:10203C007B68002B01D1012376E07B685B6A002B67
:10204C0008D17B685B68B3F5827F09D07B6800227E
:10205C00DA6105E07B6800221A617B6800225A6114
:10206C007B6800229A627B6893F85130DBB2002BBC
:10207C0006D17B68002283F850207868FEF77CFF3D
:10208C007B68022283F851207B681B681A687B6886
:10209C001B6822F040021A607B685B6803F4827252
:1020AC007B689B6803F404431A437B68DB6803F486
:1020BC0000631A437B681B6903F002031A437B68B5
:1020CC005B6903F001031A437B689B6903F400739B
:1020DC001A437B68DB6903F038031A437B681B6A7D
:1020EC0003F0800342EA03017B689B6A03F400520D
:1020FC007B681B680A431A607B689B691A0C7B68B7
:10210C001B6802F004025A607B681B68DA697B6802
:10211C001B6822F40062DA617B6800225A657B68D6
:10212C00012283F85120002318460837BD4680BD94
:10213C0080B588B000AFF860B9603B601346FB8097
:10214C000023FB77FB6893F85030012B01D102235D
:10215C002DE1FB68012283F85020FFF7BFF8B8612E
:10216C00FB88FB82FB6893F85130DBB2012B02D069
:10217C000223FB7716E1BB68002B02D0FB88002BF7
:10218C0002D10123FB770DE1FB68032283F8512078
:10219C00FB6800225A65FB68BA681A63FB68FA8808
:1021AC009A86FB68FA88DA86FB6800229A63FB68D9
:1021BC0000229A87FB680022DA87FB6800225A64A7
:1021CC00FB6800221A64FB689B68B3F5004F0FD1C3
:1021DC00FB681B681A68FB681B6822F040021A60D7
:1021EC00FB681B681A68FB681B6842F480421A6023
:1021FC00FB681B681B6803F04003402B07D0FB688F
:10220C001B681A68FB681B6842F040021A60FB6886
:10221C00DB68B3F5006F4FD1FB685B68002B02D015
:10222C00FB8A012B42D1FB681B6B1A88FB681B686D
:10223C00DA60FB681B6B9A1CFB681A63FB68DB8E0D
:10224C009BB2013B9AB2FB68DA862FE0FB681B68F5
:10225C009B6803F00203022B12D1FB681B6B1A88DC
:10226C00FB681B68DA60FB681B6B9A1CFB681A63C3
:10227C00FB68DB8E9BB2013B9AB2FB68DA8615E0F9
:10228C00FFF72CF80246BB69D31A3A689A4203D876
:10229C003B68B3F1FF3F02D13B68002B06D103230F
:1022AC00FB77FB68012283F851207BE0FB68DB8E17
:1022BC009BB2002BCAD150E0FB685B68002B02D0AC
:1022CC00FB8A012B44D1FB681A6BFB681B680C332F
:1022DC0012781A70FB681B6B5A1CFB681A63FB683C
:1022EC00DB8E9BB2013B9AB2FB68DA8630E0FB686E
:1022FC001B689B6803F00203022B13D1FB681A6B5B
:10230C00FB681B680C3312781A70FB681B6B5A1C29
:10231C00FB681A63FB68DB8E9BB2013B9AB2FB68CD
:10232C00DA8615E0FEF7DAFF0246BB69D31A3A6883
:10233C009A4203D83B68B3F1FF3F02D13B68002BB4
:10234C0006D10323FB77FB68012283F8512029E097
:10235C00FB68DB8E9BB2002BC9D1BA693968F8686F
:10236C0000F062FA0346002B02D0FB6820225A656B
:10237C00FB689B68002B0AD100233B61FB681B6840
:10238C00DB683B61FB681B689B683B613B69FB68D6
:10239C005B6D002B02D00123FB7703E0FB6801226D
:1023AC0083F85120FB68002283F85020FB7F1846ED
:1023BC002037BD4680BD80B58CB000AFF860B960E9
:1023CC007A607B800123FB62002387F82B30FB684B
:1023DC0093F85030012B01D1022398E1FB680122C4
:1023EC0083F85020FEF77AFF7862FB6893F851303F
:1023FC0087F82330FB685B68FB617B887B8397F8ED
:10240C002330012B0FD0FB69B3F5827F07D1FB681A
:10241C009B68002B03D197F82330042B03D00223A5
:10242C0087F82B306DE1BB68002B05D07B68002B47
:10243C0002D07B88002B03D1012387F82B3060E17D
:10244C00FB6893F85130DBB2042B03D0FB680522F8
:10245C0083F85120FB6800225A65FB687A689A63FE
:10246C00FB687A88DA87FB687A889A87FB68BA688F
:10247C001A63FB687A88DA86FB687A889A86FB6826
:10248C0000221A64FB6800225A64FB681B681B68F4
:10249C0003F04003402B07D0FB681B681A68FB68ED
:1024AC001B6842F040021A60FB68DB68B3F5006FF2
:1024BC007CD1FB685B68002B02D07B8B012B6AD133
:1024CC00FB681B6B1A88FB681B68DA60FB681B6B6C
:1024DC009A1CFB681A63FB68DB8E9BB2013B9AB2B9
:1024EC00FB68DA8657E0FB681B689B6803F0020305
:1024FC00022B1BD1FB68DB8E9BB2002B16D0FB6A28
:10250C00012B13D1FB681B6B1A88FB681B68DA6004
:10251C00FB681B6B9A1CFB681A63FB68DB8E9BB217
:10252C00013B9AB2FB68DA860023FB62FB681B68EE
:10253C009B6803F00103012B19D1FB68DB8F9BB265
:10254C00002B14D0FB681B68DA68FB689B6B92B29B
:10255C001A80FB689B6B9A1CFB689A63FB68DB8F89
:10256C009BB2013B9AB2FB68DA870123FB62FEF750
:10257C00B5FE02467B6AD31ABA6B9A420BD8BB6B78
:10258C00B3F1FF3F07D0032387F82B30FB68012200
:10259C0083F85120B5E0FB68DB8E9BB2002BA2D1F7
:1025AC00FB68DB8F9BB2002B9DD180E0FB685B68E6
:1025BC00002B02D07B8B012B6FD1FB681A6BFB6855
:1025CC001B680C3312781A70FB681B6B5A1CFB6867
:1025DC001A63FB68DB8E9BB2013B9AB2FB68DA860E
:1025EC005BE0FB681B689B6803F00203022B1CD1A9
:1025FC00FB68DB8E9BB2002B17D0FB6A012B14D12E
:10260C00FB681A6BFB681B680C3312781A70FB683A
:10261C001B6B5A1CFB681A63FB68DB8E9BB2013B7D
:10262C009AB2FB68DA860023FB62FB681B689B6826
:10263C0003F00103012B19D1FB68DB8F9BB2002B3C
:10264C0014D0FB681B68DA68FB689B6BD2B21A70FB
:10265C00FB689B6B5A1CFB689A63FB68DB8F9BB215
:10266C00013B9AB2FB68DA870123FB62FEF736FE68
:10267C0002467B6AD31ABA6B9A4203D8BB6BB3F18E
:10268C00FF3F02D1BB6B002B07D1032387F82B3004
:10269C00FB68012283F8512033E0FB68DB8E9BB290
:1026AC00002B9ED1FB68DB8F9BB2002B99D17A6AF1
:1026BC00B96BF86800F0B8F80346002B06D001237C
:1026CC0087F82B30FB6820225A651AE0FB689B6860
:1026DC00002B0AD100237B61FB681B68DB687B61E4
:1026EC00FB681B689B687B617B69FB685B6D002BDF
:1026FC0003D0012387F82B3003E0FB68012283F819
:10270C005120FB68002283F8502097F82B30184694
:10271C003037BD4680BD000080B588B000AFF86092
:10272C00B9603B601346FB71FEF7D8FD0246BB6AED
:10273C009B1A3A681344FB61FEF7D0FDB861394B24
:10274C001B685B011B0DFA6902FB03F37B6154E010
:10275C003B68B3F1FF3F50D0FEF7C0FD0246BB69AA
:10276C00D31AFA699A4202D9FB69002B3DD1FB6856
:10277C001B685A68FB681B6822F0E0025A60FB6811
:10278C005B68B3F5827F11D1FB689B68B3F5004F92
:10279C0004D0FB689B68B3F5806F07D1FB681B689E
:1027AC001A68FB681B6822F040021A60FB689B6A7F
:1027BC00B3F5005F0FD1FB681B681A68FB681B68D8
:1027CC0022F400521A60FB681B681A68FB681B68CD
:1027DC0042F400521A60FB68012283F85120FB6816
:1027EC00002283F85020032317E07B69002B01D1D2
:1027FC000023FB617B69013B7B61FB681B689A686A
:10280C00BB681340BA689A420CBF01230023DBB2A9
:10281C001A46FB799A429BD1002318462037BD46B5
:10282C0080BD00BF0400002080B586B002AFF86008
:10283C00B9607A607B680093BB6800228021F868DD
:10284C00FFF76AFF0346002B07D0FB685B6D43F074
:10285C002002FB685A65032300E00023184610375A
:10286C00BD4680BD80B500AF0449054803F010FF9C
:10287C0003461A46034B1A7000BF80BD3C11002062
:10288C00100000203811002080B400AF002318463F
:10289C00BD4680BC704780B582B000AF0346FB716B
:1028AC00FB791846FDF7FEFD0346DBB218460837E8
:1028BC00BD4680BD80B582B000AF0346FB71FB798D
:1028CC001846FDF7D5FE0346DBB218460837BD4661
:1028DC0080BD80B584B000AFB9607A603B600346C0
:1028EC00FB73F87B3B687A68B968FDF7D5FE034645
:1028FC00DBB218461037BD4680BD80B584B000AF42
:10290C00B9607A603B600346FB73F87B3B687A687E
:10291C00B968FDF72BFF0346DBB218461037BD46EE
:10292C0080BD80B582B000AF03463A60FB710B46A8
:10293C00BB71FB79B9793A681846FDF79BFF0346E2
:10294C00DBB218460837BD4680BD000080B584B0A8
:10295C0000AF0346FB71FB79084A9B0013445B688C
:10296C005B68FA7905490A44127A1046984703467F
:10297C00FB73FB7B18461037BD4680BD60130020EF
:10298C0080B584B000AF0346FB710023FB73FB7969
:10299C000D4AD35C002B11D1FB790B4A0121D15488
:1029AC00FB79094A9B0013445B681B68FA7906495A
:1029BC000A44127A104698470346FB73FB7B184671
:1029CC001037BD4680BD00BF6013002090B587B0A6
:1029DC0000AFB9607A603B600346FB73FB7B0A4A2D
:1029EC009B0013445B689C68FB7B074A1344187A72
:1029FC003B687A68B968A0470346FB75FB7D1846AF
:102A0C001C37BD4690BD00BF6013002090B587B049
:102A1C0000AFB9607A603B600346FB73FB7B0A4AEC
:102A2C009B0013445B68DC68FB7B074A1344187AF1
:102A3C003B687A68B968A0470346FB75FB7D18466E
:102A4C001C37BD4690BD00BF6013002080B584B01C
:102A5C0000AF03463A60FB710B46BB71FB79094A28
:102A6C009B0013445B681B69FA7906490A44107A87
:102A7C00B9793A6898470346FB73FB7B18461037C5
:102A8C00BD4680BD6013002080B487B000AFF860F5
:102A9C00B9607A60FB687B61BB683B6107E03A69AF
:102AAC00531C3B617B69591C796112781A707B68E5
:102ABC005A1E7A60002BF2D100BF00BF1C37BD46F6
:102ACC0080BC704780B487B000AFF860B9607A60A2
:102ADC00FB687B6105E07B695A1C7A61BA68D2B2EB
:102AEC001A707B685A1E7A60002BF4D100BF00BFAD
:102AFC001C37BD4680BC704780B489B000AFF8600D
:102B0C00B9607A60FB68FB61BB68BB6100237B61C9
:102B1C0000BF7B685A1E7A60002B0DD0FB695A1CD3
:102B2C00FA611B781946BB695A1CBA611B78CB1A1F
:102B3C007B617B69002BECD07B6918462437BD4642
:102B4C0080BC704780B483B000AF7860396002E01D
:102B5C007B6801337B607B681B78002B05D07B681E
:102B6C001B781A463B689342F2D17B681B78184657
:102B7C000C37BD4680BC704780B485B000AF786020
:102B8C0039600023BB60BB68FB603BE03149FA68ED
:102B9C0013465B0013449B000B441B68002B2CD08A
:102BAC002C49FA6813465B0013449B000B441A68CB
:102BBC007B6803F580531B689A4220D12549FA683B
:102BCC0013465B0013449B000B4404331A687B6868
:102BDC0003F580539B689A4211D11E49FA6813463B
:102BEC005B0013449B000B4408331A887B6803F585
:102BFC008053DB889A4202D107E00123BB60FB685B
:102C0C000133FB60FB68012BC0D9FB68022B09D197
:102C1C00BB68002B02D13B68022B01D1002313E0CF
:102C2C00122311E03B68002B0BD10A49FA681346BA
:102C3C005B0013449B000B440A331B88B3F5807F65
:102C4C0001D1102300E0002318461437BD4680BC88
:102C5C00704700BF4811002080B483B000AF002340
:102C6C007B6002E07B6801337B607B68012B09D8B9
:102C7C000A497A6813465B0013449B000B441B689B
:102C8C00002BEFD17B68022B14BF01230023DBB296
:102C9C0018460C37BD4680BC704700BF4811002059
:102CAC0080B485B000AF786039600023FB602EE003
:102CBC005849FA6813465B0013449B000B441A688E
:102CCC007B6803F580531B689A421DD15149FA6801
:102CDC0013465B0013449B000B4404331A687B6857
:102CEC0003F580539B689A420ED14A49FA68134601
:102CFC005B0013449B000B4408331A887B6803F574
:102D0C008053DB889A4206D0FB680133FB60FB687A
:102D1C00012BCDD900E000BFFB68022B48D100236A
:102D2C00FB6002E0FB680133FB60FB68012B09D8F8
:102D3C003849FA6813465B0013449B000B441B682C
:102D4C00002BEFD1FB68022B01D100235DE07B68E7
:102D5C0003F5805319682F48FA6813465B00134437
:102D6C009B00034419607B6803F5805399682948DC
:102D7C00FA6813465B0013449B0003440433196048
:102D8C007B6803F58053D8882249FA6813465B00A8
:102D9C0013449B000B44083302461A801D49FA6801
:102DAC0013465B0013449B000B440A3300221A8029
:102DBC003B68002B0CD01749FA6813465B00134490
:102DCC009B000B440A331B88002B01D000231CE012
:102DDC003B68002B0BD10F49FA6813465B00134478
:102DEC009B000B440A331B88013399B201E04FF46A
:102DFC0080710848FA6813465B0013449B00034437
:102E0C000A330A461A80FB68013318461437BD464C
:102E1C0080BC70474811002080B485B000AF78604A
:102E2C007B68013B7B607B68012B2ED81B497A6841
:102E3C0013465B0013449B000B440A331B88FB8135
:102E4C00FB89B3F5807F01D10023FB81FB89002B2B
:102E5C0002D0FB89013BFB8110497A6813465B0069
:102E6C0013449B000B440A33FA891A80FB89002B0C
:102E7C0008D10A497A6813465B0013449B000B4443
:102E8C0000221A6000237B7301E002237B737B7B9F
:102E9C0018461437BD4680BC704700BF481100204F
:102EAC0080B485B000AF78600023FB6016E0104959
:102EBC00FA6813465B0013449B000B441B687A684A
:102ECC009A4208D10A49FA6813465B0013449B00E6
:102EDC000B4400221A60FB680133FB60FB68012B7A
:102EEC00E5D900BF00BF1437BD4680BC704700BF9A
:102EFC004811002080B586B000AF78600023FB73CA
:102F0C007B6803F580531B79002B40D07B6803F55D
:102F1C008053DB6A7B617B6803F580535878796852
:102F2C0001237A69FFF772FD0346002B02D00123BF
:102F3C00FB732CE07B6803F5805300221A717B68CD
:102F4C0003F580531B6A7A69D21A7B6803F58053A8
:102F5C009B699A421BD27B6803F58053DB783B61FB
:102F6C0012E07B6803F580539B697A6913447B619B
:102F7C007B6803F580535878796801237A69FFF7E9
:102F8C0045FD3B69013B3B613B69012BE9D8FB7B70
:102F9C0018461837BD4680BD80B584B000AF786048
:102FAC0039600023FB737B6803F58053DB6A3A6856
:102FBC009A421ED07868FFF79DFF0346FB73FB7B9C
:102FCC00002B16D17B6803F5805358787968012360
:102FDC003A68FFF7FBFC0346002B04D04FF0FF339D
:102FEC003B600123FB737B6803F580531A463B68F7
:102FFC00D362FB7B18461037BD4680BD80B584B0CC
:10300C0000AF78607868FFF775FF0346FB73FB7BB6
:10301C00002B40F0AD807B6803F580531B78032BAD
:10302C0040F098807B6803F580535B79012B40F06E
:10303C00918078687B6803F580535B891A46002180
:10304C00FFF740FD7B68552283F8FE217B68AA229E
:10305C0083F8FF217B6852221A707B6852225A70C7
:10306C007B6861229A707B684122DA707B687222DD
:10307C0083F8E4217B68722283F8E5217B68412286
:10308C0083F8E6217B68612283F8E7217B6803F5EE
:10309C0080531B69DAB27B6883F8E8217B6803F5FF
:1030AC0080531B699BB21B0A9BB2DAB27B6883F814
:1030BC00E9217B6803F580531B691B0CDAB27B6832
:1030CC0083F8EA217B6803F580531B691B0EDAB287
:1030DC007B6883F8EB217B6803F58053DB68DAB2FD
:1030EC007B6883F8EC217B6803F58053DB689BB22B
:1030FC001B0A9BB2DAB27B6883F8ED217B6803F57F
:10310C008053DB681B0CDAB27B6883F8EE217B689A
:10311C0003F58053DB681B0EDAB27B6883F8EF2172
:10312C007B6803F58053DB6901337A6802F58052C2
:10313C00D3627B6803F58053587879687B6803F514
:10314C008053DA6A0123FFF761FC7B6803F5805337
:10315C0000225A717B6803F580535B7800220021B2
:10316C001846FFF773FC0346002B01D00123FB73B9
:10317C00FB7B18461037BD4680BD80B483B000AFD2
:10318C00786039603B68023B3B607B6803F5805399
:10319C005B69023B3A689A4201D300230CE07B68DE
:1031AC0003F580539B781A463B6803FB02F27B685D
:1031BC0003F580539B6A134418460C37BD4680BCFC
:1031CC00704780B586B000AF786039603B68012BE2
:1031DC0006D97B6803F580535B693A689A4202D33F
:1031EC0001237B61E3E04FF0FF337B617B6803F5E8
:1031FC0080531B78032B00F09780032B00F3CD80BA
:10320C00012B02D0022B5ED0C7E03B68FB60FB6851
:10321C005B08FA681344FB607B6803F580531A6AF9
:10322C007B6803F580535B891946FB68B3FBF1F3AC
:10323C00134419467868FFF7AFFE0346002B40F0A5
:10324C00AF80FB685A1CFA607A6802F5805252898A
:10325C00B3FBF2F101FB02F29B1A7A68D35CBB6000
:10326C007B6803F580531A6A7B6803F580535B898E
:10327C001946FB68B3FBF1F3134419467868FFF762
:10328C008BFE0346002B40F08D807B6803F580534A
:10329C005B891A46FB68B3FBF2F101FB02F29B1A45
:1032AC007A68D35C1B02BA681343BB603B6803F0BB
:1032BC000103002B02D0BB681B0902E0BB68C3F3FF
:1032CC000B037B6173E07B6803F580531A6A7B68A0
:1032DC0003F580535B895B089BB219463B68B3FBD3
:1032EC00F1F3134419467868FFF756FE0346002B9A
:1032FC005AD13B685B007A6802F580525289B3FB65
:10330C00F2F101FB02F29B1A7A6813443B613B69B0
:10331C0001331B781B021AB23B691B781BB2134397
:10332C001BB29BB27B6142E07B6803F580531A6A47
:10333C007B6803F580535B899B089BB219463B68FD
:10334C00B3FBF1F3134419467868FFF725FE0346E7
:10335C00002B2BD13B689B007A6802F58052528976
:10336C00B3FBF2F101FB02F29B1A7A6813443B6146
:10337C003B6903331B781A063B6902331B781B0429
:10338C001A433B6901331B781B0213433A691278C9
:10339C00134323F070437B6109E001237B6106E05A
:1033AC0000BF04E000BF02E000BF00E000BF7B698B
:1033BC0018461837BD4680BD80B588B000AFF860A0
:1033CC00B9607A60BB68012B06D9FB6803F58053A2
:1033DC005B69BA689A4202D30223FB773AE1FB6835
:1033EC0003F580531B78032B00F0D080032B00F3E4
:1033FC002781012B03D0022B00F08F8020E1BB68CA
:10340C007B617B695B087A6913447B61FB6803F51C
:10341C0080531A6AFB6803F580535B8919467B69F4
:10342C00B3FBF1F313441946F868FFF7B5FD0346F7
:10343C00FB77FB7F002B40F006817B695A1C7A617D
:10344C00FA6802F580525289B3FBF2F101FB02F2E9
:10345C009B1AFA681344BB61BB6803F00103002B91
:10346C000DD0BB691B785BB203F00F035AB27B68BB
:10347C00DBB21B015BB213435BB2DBB201E07B68D6
:10348C00DBB2BA691370FB6803F5805301221A7121
:10349C00FB6803F580531A6AFB6803F580535B895C
:1034AC0019467B69B3FBF1F313441946F868FFF72F
:1034BC0073FD0346FB77FB7F002B40F0C680FB6857
:1034CC0003F580535B891A467B69B3FBF2F101FB70
:1034DC0002F29B1AFA681344BB61BB6803F0010348
:1034EC00002B03D07B681B09DBB20EE0BB691B7899
:1034FC005BB223F00F035AB27B681B0A5BB203F07A
:10350C000F035BB213435BB2DBB2BA691370FB6897
:10351C0003F5805301221A719CE0FB6803F580537C
:10352C001A6AFB6803F580535B895B089BB21946EA
:10353C00BB68B3FBF1F313441946F868FFF72CFD95
:10354C000346FB77FB7F002B40F08180BB685B0060
:10355C00FA6802F580525289B3FBF2F101FB02F2D8
:10356C009B1AFA681344BB617B68DAB2BB691A70A8
:10357C007B689BB21B0A9AB2BB690133D2B21A7038
:10358C00FB6803F5805301221A7163E0FB6803F5B5
:10359C0080531A6AFB6803F580535B899B089BB2C6
:1035AC001946BB68B3FBF1F313441946F868FFF7EF
:1035BC00F3FC0346FB77FB7F002B4AD1BB689B00D7
:1035CC00FA6802F580525289B3FBF2F101FB02F268
:1035DC009B1AFA681344BB61BB6903331B781A0648
:1035EC00BB6902331B781B041A43BB6901331B787C
:1035FC001B021343BA691278134303F070437A68C1
:10360C0013437B607B68DAB2BB691A707B689BB230
:10361C001B0A9AB2BB690133D2B21A707B681A0CBE
:10362C00BB690233D2B21A707B681A0EBB690333C2
:10363C00D2B21A70FB6803F5805301221A7109E0AB
:10364C000223FB7706E000BF04E000BF02E000BFEE
:10365C0000E000BFFB7F18462037BD4680BD80B51B
:10366C0084B000AF786039603B68012B06D97B6869
:10367C0003F580535B693A689A4202D30223FB73C9
:10368C0049E00023FB733BE039687868FFF799FD4C
:10369C00B860BB68002B3BD0BB68012B02D1022366
:1036AC00FB7338E0BB68B3F1FF3F02D10123FB731E
:1036BC0031E0002239687868FFF77EFE0346FB7321
:1036CC00FB7B002B26D17B6803F580531B69B3F180
:1036DC00FF3F13D07B6803F580531B6901337A6875
:1036EC0002F5805213617B6803F580535B7943F0DC
:1036FC000103DAB27B6803F580535A71BB683B60F7
:10370C007B6803F580535B693A689A42BCD302E04C
:10371C0000BF00E000BFFB7B18461037BD4680BDE4
:10372C0080B586B000AF786039603B68002B11D152
:10373C007B6803F58053DB683B613B69002B06D04B
:10374C007B6803F580535B693A699A421DD3012368
:10375C003B611AE039687868FFF733FDB860BB68E5
:10376C00012B01D801237FE0BB68B3F1FF3F01D1EE
:10377C00BB6879E07B6803F580535B69BA689A4251
:10378C0001D2BB6870E03B683B613B697B617B6944
:10379C0001337B617B6803F580535B697A699A42DC
:1037AC0007D302237B617A693B699A4201D90023D2
:1037BC005AE079697868FFF704FDB860BB68002BA4
:1037CC000ED0BB68B3F1FF3F02D0BB68012B01D117
:1037DC00BB6849E07A693B699A42D8D1002343E03F
:1037EC0000BF6FF0704279697868FFF7E5FD03461A
:1037FC00FB73FB7B002B09D13B68002B06D07A694D
:10380C0039687868FFF7D8FD0346FB73FB7B002B08
:10381C0021D17B6803F580531A467B69D3607B68A2
:10382C0003F580531B69B3F1FF3F1CD07B6803F594
:10383C0080531B69013B7A6802F5805213617B68E7
:10384C0003F580535B7943F00103DAB27B6803F52F
:10385C0080535A7107E0FB7B012B02D14FF0FF33F1
:10386C0000E001237B617B6918461837BD4680BD9B
:10387C0080B487B000AF786039607B6803F5805303
:10388C005B6A04333B617B6803F580531B6803F56B
:10389C0080535B891A463B68B3FBF2F37A6802F5F6
:1038AC008052126802F580529278B3FBF2F37B617E
:1038BC003B691A1D3A611B68FB60FB68002B01D148
:1038CC00002310E07A69FB689A4207D37A69FB6897
:1038DC00D31A7B613B6904333B61E9E700BF3B6969
:1038EC001A687B69134418461C37BD4680BC704768
:1038FC0080B586B000AF786039603B689AB27B685F
:10390C0003F58053DA807B6803F580539B687B61F9
:10391C007B69012B09D07B6803F580531B6803F589
:10392C0080535B697A699A4201D30223AAE07B69CE
:10393C00002B10D17B6803F580531B6803F5805373
:10394C001B78032B07D17B6803F580531B6803F5A9
:10395C0080535B6A7B617B69002B15D17B6803F517
:10396C0080531B6803F580531B891A463B689342AE
:10397C0001D3022386E07B6803F580531B6803F5B3
:10398C0080535B6A3B6143E07B6803F580531B68A3
:10399C0003F580535B895B099BB21A467B6803F580
:1039AC0080531B6803F580539B7802FB03F3FB6089
:1039BC0021E07B6803F580531B6879691846FFF793
:1039CC0000FC78617B69B3F1FF3F01D1012359E021
:1039DC007B69012B09D97B6803F580531B6803F5C0
:1039EC0080535B697A699A4201D302234AE03A68B0
:1039FC00FB68D31A3B603A68FB689A42D9D27B6861
:103A0C0003F580531B6879691846FFF7B6FB3861DC
:103A1C007B6803F580531A467B69D3603B69002BA6
:103A2C0001D102232EE07B6803F580531B6803F55C
:103A3C0080535B895B099BB21A463B68B3FBF2F27D
:103A4C003B6913447A6802F5805213617B6803F575
:103A5C0080531B6818467B6803F580531B6803F57D
:103A6C0080535B895B099BB21A463B68B3FBF2F14E
:103A7C0001FB02F29B1A5B0103447A6802F5805247
:103A8C005361002318461837BD4680BD90B587B0EA
:103A9C0000AF786039607B6803F58053DB880133B5
:103AAC00FB60FB689BB2002B05D07B6803F5805351
:103ABC001B69002B01D104232EE17B6803F5805395
:103ACC001B6803F580535B895B099BB21A46FB6844
:103ADC00B3FBF2F101FB02F29B1A002B40F0FA80CF
:103AEC007B6803F580531B6901337A6802F58052B9
:103AFC0013617B6803F58053DB68002B0DD17B6869
:103B0C0003F580531B6803F580531B891A46FB6829
:103B1C009342C0F0DF800423FEE07B6803F5805302
:103B2C001B6803F580535B895B099BB21A46FB68E3
:103B3C00B3FBF2F37A6802F58052126802F58052F8
:103B4C009278013A1340002B40F0C4807B6803F557
:103B5C0080531A687B6803F58053DB68194610465E
:103B6C00FFF72FFB78617B69012B01D80223D3E08F
:103B7C007B69B3F1FF3F01D10123CDE07B6803F5F5
:103B8C0080531B6803F580535B697A699A42C0F0D5
:103B9C008E803B68002B01D10423BDE07B6803F5CC
:103BAC0080531A687B6803F58053DB68194610460E
:103BBC00FFF7B6FD78617B69002B01D10723ABE0E1
:103BCC007B69012B01D10223A6E07B69B3F1FF3F96
:103BDC0001D10123A0E07B6803F580531B681846D4
:103BEC00FFF788F90346002B01D0012394E07B6892
:103BFC0003F580531B6818467B6803F580531B68DC
:103C0C0003F580535B891A460021FEF75BFF7B6846
:103C1C0003F580531A687B6803F580531C68796937
:103C2C001046FFF7AAFA034604F58052D36200232C
:103C3C003B6121E07B6803F580531B6803F58053DF
:103C4C0001221A717B6803F580531B681846FFF735
:103C5C0051F90346002B01D001235DE07B6803F58D
:103C6C0080531B6803F58052D26A013203F58053EE
:103C7C00DA623B6901333B617B6803F580531B6857
:103C8C0003F580539B781A463B699342D2D37B68E9
:103C9C0003F580531B6803F58053D96A7B6803F5E1
:103CAC0080531A683B69CB1A02F58052D3627B6849
:103CBC0003F580531A467B69D3607B6803F5805308
:103CCC001B6879691846FFF758FA02467B6803F5BA
:103CDC0080531A61FB689AB27B6803F58053DA80D3
:103CEC007B6803F580531B6818467B6803F580538B
:103CFC001B6803F580535B895B099BB21A46FB6812
:103D0C00B3FBF2F101FB02F29B1A5B0103447A68EC
:103D1C0002F580525361002318461C37BD4690BDF6
:103D2C0080B584B000AF7860396000217868FFF707
:103D3C00DFFD0346FB73FB7B002B35D10023BB60FF
:103D4C007B6803F580531A687B6803F580531B6905
:103D5C0019461046FFF720F90346FB73FB7B002B3B
:103D6C0021D17B6803F580535B691B78E52B06D06A
:103D7C007B6803F580535B691B78002B07D1BB680C
:103D8C000133BB60BA683B689A4202D10CE0002355
:103D9C00BB6001217868FFF779FE0346FB73FB7B60
:103DAC00002BCDD000E000BFFB7B042B01D10723FF
:103DBC00FB73FB7B18461037BD4680BD80B485B0C5
:103DCC0000AF786039603B681B331B781B021AB25A
:103DDC003B681A331B781BB213431BB29BB2FB60BC
:103DEC007B6803F580531B78032B0FD13B6815338D
:103DFC001B781B021AB23B6814331B781BB213439B
:103E0C001BB29BB21B04FA681343FB60FB68184699
:103E1C001437BD4680BC704780B483B000AF786067
:103E2C0039607B681A333A68D2B21A703B689BB21D
:103E3C001B0A9AB27B681B33D2B21A703B681A0CFD
:103E4C007B681433D2B21A703B681B0C9BB21B0AF2
:103E5C009AB27B681533D2B21A7000BF0C37BD46CC
:103E6C0080BC704780B586B000AF786039603B6825
:103E7C001B7823F040035A1E13465B0013449B002F
:103E8C0013447B6100233B610123FB812B4A3B697B
:103E9C0013441B7801333A6813441B781B021AB283
:103EAC0026493B690B441B7819463B680B441B782D
:103EBC001BB213431BB2BB81FB89002B19D0BB89EE
:103ECC00184602F02FFC0346FB817B69FE2B0ED8B3
:103EDC007B695A1C7A615B007A6813441B8818460C
:103EEC0002F020FC03461A46FB89934208D00023BB
:103EFC001FE0BB894FF6FF72934201D0002318E0FC
:103F0C003B6901333B613B690C2BBFD93B681B7888
:103F1C0003F04003002B0BD0FB89002B08D07B69EE
:103F2C005B007A6813441B88002B01D0002300E04F
:103F3C00012318461837BD4680BD00BF107A000813
:103F4C0080B489B000AFF860B96011461A460B46D0
:103F5C00FB711346BB71BB680D33BA791A70BB6821
:103F6C000B330F221A70BB680C3300221A70BB681B
:103F7C001A3300221A70BB681B3300221A70FB79AB
:103F8C005A1E13465B0013449B001344FB61002331
:103F9C00FB820023BB61FB8A4FF6FF72934207D072
:103FAC00FB695A1CFA615B00FA6813441B88FB829C
:103FBC001C4ABB6913441B781A46BB681344FA8A23
:103FCC00D2B21A70FB8A1B0A99B2164ABB69134407
:103FDC001B780133BA681344CAB21A70FB8A002BDF
:103FEC0002D14FF6FF73FB82BB690133BB61BB6926
:103FFC000C2BD0D9FB8A4FF6FF72934206D0FB698B
:10400C005B00FA6813441B88002B03D1FB7943F047
:10401C004003FB71BB68FA791A7000BF2437BD46A8
:10402C0080BC7047107A000880B58CB000AFF86087
:10403C00B9607A603B600B22B968F868FEF724FD22
:10404C003B68052B2BD93B68FB6122E07B689A1CF3
:10405C007A601B887B840023BB6217E0FB695A00E3
:10406C007B8C03F001031344FB617B8C5B087B842A
:10407C00FB6903F48033002B05D0FB6983F4883390
:10408C0083F02103FB61BB6A0133BB62BB6A0F2B5C
:10409C00E4D97B681B88002BD8D1FB693B600723D4
:1040AC00BB623B68DBB203F00F03DBB2303387F843
:1040BC002F3097F82F30392B04D997F82F3007333E
:1040CC0087F82F30BB6A5A1EBA6230333B4497F8DC
:1040DC002F2003F81C2C3B681B093B603B68002B12
:1040EC00DFD107F11402BB6A13447E221A7000233D
:1040FC007B6202E07B6A01337B627A6ABB6A9A421A
:10410C0005D2FA687B6A13441B78202BF2D1BB6A68
:10411C00072B07D8BB6A5A1CBA6230333B4413F8DE
:10412C001C1C00E020217B6A5A1C7A62FA6813443A
:10413C000A461A707B6A072BE9D900BF00BF3037DB
:10414C00BD4680BD80B485B000AF78600023FB73A2
:10415C000B23BB60FB7BDAB25208DB011343DAB2F0
:10416C007B68591C79601B781344FB73BB68013B5B
:10417C00BB60BB68002BEDD1FB7B18461437BD46EA
:10418C0080BC704780B586B000AF7860002178683D
:10419C00FFF7AEFB0346FB75FB7D002B01D0FB7DCF
:1041AC00B8E0FF233B753B7D7B757B6803F5805343
:1041BC004FF6FF729A847B6803F580531A687B680C
:1041CC0003F580531B6919461046FEF7E5FE0346BE
:1041DC00FB75FB7D002B40F097807B6803F58053CB
:1041EC005B693B613B691B78BB75BB7D002B02D1C6
:1041FC000423FB758DE03B690B331B7803F03F0305
:10420C00FB73BB7DE52B07D0FB7B03F00803002B76
:10421C000BD0FB7B0F2B08D0FF237B757B6803F542
:10422C0080534FF6FF729A8463E0FB7B0F2B37D1E0
:10423C007B6803F580531B6A002B5AD0BB7D03F0BF
:10424C004003002B10D03B695B7B3B75BB7D23F09F
:10425C004003BB75BB7D7B757B6803F58053DA88A7
:10426C007B6803F580539A84BA7D7B7D9A4214D186
:10427C003B690D331B783A7D9A420ED17B6803F56E
:10428C0080531B6A39691846FFF7ECFD0346002B77
:10429C0003D07B7D013BDBB200E0FF237B7528E084
:1042AC007B7D002B07D13869FFF74CFF03461A467C
:1042BC003B7D93422AD07B6803F580539B690B337B
:1042CC001B7803F00103002B0BD17B6803F58053A3
:1042DC009B690B2219463869FEF70EFC0346002B2E
:1042EC0016D0FF237B757B6803F580534FF6FF7266
:1042FC009A8400217868FFF7C9FB0346FB75FB7DA8
:10430C00002B3FF458AF04E000BF02E000BF00E018
:10431C0000BFFB7D18461837BD4680BD80B58CB0FC
:10432C0000AF78607B6803F580539B693B627B68C8
:10433C0003F580531B6AFB6107F10C030C22396AED
:10434C001846FEF7A1FBFB7D03F00103002B3BD0CD
:10435C003B6A0B3300221A707B6803F580531A46B4
:10436C00002313620123BB6213E007F10C01BB6A4B
:10437C00FA69386AFFF758FE7868FFF703FF0346BF
:10438C0087F82F3097F82F30002B06D1BB6A0133FA
:10439C00BB62BB6A632BE8D900E000BFBB6A642B2D
:1043AC0001D10723D8E097F82F30042B02D097F8CF
:1043BC002F30D1E03B6A0B33FA7D1A707B6803F522
:1043CC0080531A46FB691362FB7D03F00203002B3A
:1043DC0014D00023BB6202E0BB6A0133BB62BB6A30
:1043EC005B00FA6913441B88002BF5D1BB6A1933A7
:1043FC005B4AA2FB03239B087B6201E001237B62E7
:10440C00796A7868FFF78CFC034687F82F3097F8A9
:10441C002F30002B5BD17B6A013B7B627B6A002BCC
:10442C0055D07B6803F58053DB881A467B6AD31A18
:10443C0019467868FFF75CFA034687F82F3097F82F
:10444C002F30002B43D17B6803F580539B691846B2
:10445C00FFF778FE0346FB767B6803F580531A68FA
:10446C007B6803F580531B6919461046FEF794FDD3
:10447C00034687F82F3097F82F30002B26D17B6816
:10448C0003F58053186A7B6803F5805359697B6A7E
:10449C00DAB2FB7EFFF754FD7B6803F580531B6893
:1044AC0003F5805301221A7100217868FFF7EEFAA8
:1044BC00034687F82F3097F82F30002B07D17B6AF3
:1044CC00013B7B627B6A002BC6D100E000BF97F8F2
:1044DC002F30002B3ED17B6803F580531A687B6824
:1044EC0003F580531B6919461046FEF755FD03462C
:1044FC0087F82F3097F82F30002B2BD17B6803F5E2
:10450C0080535B69202200211846FEF7DBFA7B689A
:10451C0003F5805358697B6803F580539B690B2224
:10452C001946FEF7B1FA7B6803F580539B690B3390
:10453C001A787B6803F580535B690C3302F0180220
:10454C00D2B21A707B6803F580531B6803F5805355
:10455C0001221A7197F82F3018463037BD4680BDAE
:10456C004FECC44E80B58AB000AF786039603B68C0
:10457C001B683B6102E03B6901333B613B691B7883
:10458C002F2BF8D03B691B785C2BF4D07B6803F5A0
:10459C0080531B6AFB6000237B617B69BB61BB6939
:1045AC005A1CBA613A6913441B78BB84BB8C1F2B11
:1045BC002FD9BB8C2F2B2CD0BB8C5C2B29D07B699F
:1045CC00FE2B01D9062386E1BB8CDBB2BB84BB8CF2
:1045DC000121184602F06CF80346BB84BB8C002BFF
:1045EC0001D1062377E1BB8C7F2B09D8BB8C1946F4
:1045FC008E48FEF7A7FA0346002B01D006236AE18A
:10460C007B695A1C7A615B00FA681344BA8C1A8075
:10461C00C5E73A69BB691A443B681A60BB8C1F2B0F
:10462C0001D8042300E0002387F8273011E07B69D0
:10463C0003F10043013B5B00FA6813441B88BB8405
:10464C00BB8C202B02D0BB8C2E2B06D17B69013B63
:10465C007B617B69002BEAD100E000BF7B69002BFA
:10466C0001D1062337E17B695B00FA681344002211
:10467C001A807B6803F580539B690B222021184616
:10468C00FEF720FA0023BB6102E0BB690133BB617A
:10469C00BB695B00FA6813441B88202BF5D0BB69FF
:1046AC005B00FA6813441B882E2BEED0BB69002BE1
:1046BC0009D097F8273043F0030387F8273002E03E
:1046CC007B69013B7B617B69002B09D07B6903F122
:1046DC000043013B5B00FA6813441B882E2BEFD17F
:1046EC0000233B62002387F826300823FB61BB695B
:1046FC005A1CBA615B00FA6813441B88BB84BB8CE0
:10470C00002B00F09180BB8C202B06D0BB8C2E2B69
:10471C000AD1BA697B699A4206D097F8273043F0E0
:10472C00030387F827307EE03A6AFB699A4203D28A
:10473C00BA697B699A4223D1FB690B2B06D197F896
:10474C00273043F0030387F8273076E0BA697B699A
:10475C009A4205D097F8273043F0030387F82730A7
:10476C00BA697B699A4267D87B69BB6108233B6253
:10477C000B23FB6197F826309B0087F8263052E01C
:10478C00BB8C7F2B14D9BB8C0021184601F090FFF9
:10479C000346BB84BB8C002B04D0BB8C803B244ACF
:1047AC00D35CBB8497F8273043F0020387F827309B
:1047BC00BB8C002B07D0BB8C19461E48FEF7C2F9E8
:1047CC000346002B08D05F23BB8497F8273043F0B7
:1047DC00030387F827301BE0BB8C402B09D9BB8C1B
:1047EC005A2B06D897F8263043F0020387F8263068
:1047FC000EE0BB8C602B0BD9BB8C7A2B08D897F8AE
:10480C00263043F0010387F82630BB8C203BBB8459
:10481C007B6803F580539A693B6A591C39621344CF
:10482C00BA8CD2B21A7062E700BF06E02479000895
:10483C00907900083079000800BF7B6803F580533D
:10484C009B691B78E52B05D17B6803F580539B692D
:10485C0005221A70FB69082B04D197F826309B00AF
:10486C0087F8263097F8263003F00C030C2B05D074
:10487C0097F8263003F00303032B05D197F8273064
:10488C0043F0020387F8273097F8273003F0020330
:10489C00002B17D197F8263003F00303012B05D119
:1048AC0097F8273043F0100387F8273097F8263015
:1048BC0003F00C03042B05D197F8273043F00803C1
:1048CC0087F827307B6803F580539B690B3397F887
:1048DC0027201A70002318462837BD4680BD00BF1C
:1048EC0080B584B000AF786039603B681B782F2BA3
:1048FC0003D03B681B785C2B02D13B6801333B60D7
:10490C007B6803F580531A46002393603B681B7841
:10491C001F2B0CD800217868FEF7EAFF0346FB73C7
:10492C007B6803F580531A460023536149E03B46EC
:10493C0019467868FFF716FE0346FB73FB7B002BCA
:10494C003AD17868FFF71EFC0346FB737B6803F5CE
:10495C0080539B69DB7ABB73FB7B002B0AD0FB7B00
:10496C00042B2BD1BB7B03F00403002B26D1052396
:10497C00FB7323E0BB7B03F00403002B20D17B688B
:10498C0003F580535B69BB60BB680B331B7803F08A
:10499C001003002B02D10523FB7312E07B6803F597
:1049AC0080531B68B9681846FFF708FA02467B6803
:1049BC0003F580539A60BAE700BF02E000BF00E045
:1049CC0000BFFB7B18461037BD4680BD80B487B056
:1049DC0000AF78604FF0FF333B617B681B68002BA6
:1049EC0031D07B681B687B6102E07B6901337B61A2
:1049FC007B691B781F2B03D97B691B783A2BF4D16D
:104A0C007B691B783A2B1CD17B681B68FB60FB68AD
:104A1C005A1CFA601B78303BBB60BB68092B0ED864
:104A2C00FA687B699A420AD1BB68002B07D1BB6834
:104A3C003B617B6901337B617B687A691A603B69F6
:104A4C0002E000233B613B6918461C37BD4680BC25
:104A5C007047000080B582B000AF786039607B6829
:104A6C0003F5805300221A717B6803F580531A46B4
:104A7C004FF0FF33D36239687868FEF78DFA03463E
:104A8C00002B01D003234AE07B6803F5FF7301334D
:104A9C001B781B021AB27B6893F8FE311BB21343CE
:104AAC001BB2214A934201D0022338E07B68363393
:104ABC0003331B781A067B68363302331B781B04CE
:104ACC001A437B68363301331B781B0213437A6815
:104ADC0092F83620134323F07F43144A934201D1BA
:104AEC0000231CE07B68523303331B781A067B6867
:104AFC00523302331B781B041A437B685233013345
:104B0C001B781B0213437A6892F85220134323F04C
:104B1C007F43064A934201D1002300E0012318464B
:104B2C000837BD4680BD00BF55AAFFFF4641540063
:104B3C0080B596B000AFF860B9601346FB71FB68A6
:104B4C0000221A60B868FFF741FFF863FB6B002B7B
:104B5C0001DA0B2311E3984AFB6B52F82330BB6349
:104B6C00BB6B002B01D10C2307E3FB68BA6B1A60FB
:104B7C00BB6B03F580531B78002B1CD0BB6B03F570
:104B8C0080535B781846FDF7E1FE034687F8373013
:104B9C0097F8373003F00103002B0CD1FB79002B75
:104BAC0007D097F8373003F00403002B01D00A2309
:104BBC00E3E20023E1E2BB6B03F5805300221A70A1
:104BCC00FB6BDAB2BB6B03F580535A70BB6B03F50E
:104BDC0080535B781846FDF7D3FE034687F83730D1
:104BEC0097F8373003F00103002B01D00323C4E204
:104BFC00FB79002B07D097F8373003F00403002B18
:104C0C0001D00A23B9E2BB6B03F580535878BB6B18
:104C1C0003F580530A331A460221FDF717FF0346AA
:104C2C00002B0DD1BB6B03F580535B89B3F5007F73
:104C3C0006D3BB6B03F580535B89B3F5805F01D959
:104C4C0001239AE200233B65396DB86BFFF702FF35
:104C5C00034687F8573097F85730012B53D1002370
:104C6C003B6428E0BA6B3B6C1B0103F5DF73134408
:104C7C003B633B6B04331B78002B12D03B6B0B3329
:104C8C001B781A063B6B0A331B781B041A433B6BCD
:104C9C0009331B781B0213433A6B083212781A4300
:104CAC0000E000223B6C9B0058333B4443F8442CFF
:104CBC003B6C01333B643B6C032BD3D900233B642B
:104CCC003B6C002B02D03B6C013B3B643B6C9B0070
:104CDC0058333B4453F8443C3B653B6D002B05D0AB
:104CEC00396DB86BFFF7B6FE034600E0022387F878
:104CFC00573097F85730002B05D03B6C01333B6491
:104D0C003B6C032BE2D997F85730032B01D10123CD
:104D1C0033E297F85730002B01D00D232DE2BB6BFB
:104D2C001B7B1B021AB2BB6BDB7A1BB213431AB28E
:104D3C00BB6B03F580535B891BB29A4201D00D23E8
:104D4C001BE2BB6BDB7D1B021AB2BB6B9B7D1BB2E8
:104D5C0013431BB29BB2FB64FB6C002B12D1BB6BDD
:104D6C0093F827301A06BB6B93F826301B041A43B2
:104D7C00BB6B93F825301B021343BA6B92F82420BB
:104D8C001343FB64BB6B03F580531A46FB6C9361B6
:104D9C00BB6B1A7CBB6B03F58053DA70BB6B03F5F2
:104DAC008053DB78012B09D0BB6B03F58053DB7888
:104DBC00022B03D00D23E0E140110020BB6B03F567
:104DCC008053DB781A46FB6C02FB03F3FB64BB6B72
:104DDC005A7BBB6B03F580539A70BB6B03F5805306
:104DEC009B78002B0CD0BB6B03F580539B781A4639
:104DFC00BB6B03F580539B78013B1340002B01D018
:104E0C000D23BAE1BB6B9B7C1B021AB2BB6B5B7CA8
:104E1C001BB213431BB29AB2BB6B03F580531A81BE
:104E2C00BB6B03F580531B89BA6B02F58052528918
:104E3C00520992B2B3FBF2F101FB02F29B1A9BB244
:104E4C00002B01D00D2398E1BB6B1B7D1B021AB20A
:104E5C00BB6BDB7C1BB213431BB29BB2BB64BB6C46
:104E6C00002B12D1BB6B93F823301A06BB6B93F853
:104E7C0022301B041A43BB6B93F821301B021343E3
:104E8C00BA6B92F820201343BB64BB6BDB7B1B0219
:104E9C001AB2BB6B9B7B1BB213431BB2FB85FB8D06
:104EAC00002B01D10D2368E1FA8DFB6C1344BA6B16
:104EBC0002F580521189BA6B02F58052528952095F
:104ECC0092B2B1FBF2F292B21344BB62BA6CBB6AFF
:104EDC009A4201D20D2350E1BA6CBB6AD31ABA6B59
:104EEC0002F580529278B3FBF2F37B627B6A002B63
:104EFC0001D10D2341E1012387F857307B6A40F63D
:104F0C00F572934202D9022387F857307B6A4FF629
:104F1C00F572934202D9032387F857307B6A023328
:104F2C00BA6B02F580525361BB6B03F580531A4682
:104F3C003B6DD361FA8D3B6D1344BA6B02F5805215
:104F4C0013623A6DBB6A1344BA6B02F580529362DA
:104F5C0097F85730032B24D1BB6B03F580531B8977
:104F6C00002B01D00D2308E1BB6B93F82F301A06F0
:104F7C00BB6B93F82E301B041A43BB6B93F82D308C
:104F8C001B021343BA6B92F82C201343BA6B02F535
:104F9C0080525362BB6B03F580535B699B007B644F
:104FAC002BE0BB6B03F580531B89002B01D10D2328
:104FBC00E3E0BB6B03F580531A6AFB6C1344BA6BCA
:104FCC0002F58052536297F85730022B05D1BB6B18
:104FDC0003F580535B695B000EE0BB6B03F58053FC
:104FEC005A6913465B0013445A08BB6B03F5805394
:104FFC005B6903F0010313447B64BB6B03F58053C3
:10500C009A69BB6B03F580535B8919467B6C0B4427
:10501C00013BB96B01F580514989B3FBF1F39A421D
:10502C0001D20D23A9E0BB6B03F580531A464FF058
:10503C00FF331361BB6B03F580531B69BA6B02F52D
:10504C008052D360BB6B03F5805380225A7197F862
:10505C005730032B7AD1BB6B93F831301B021AB249
:10506C00BB6B93F830301BB213431BB2012B6DD1C9
:10507C003B6D01331946B86BFDF78EFF0346002BD1
:10508C0064D1BB6B03F5805300225A71BB6B93F850
:10509C00FF311B021AB2BB6B93F8FE311BB21343E8
:1050AC001BB2384A934251D1BB6BDB781A06BB6BEF
:1050BC009B781B041A43BB6B5B781B021343BA6BC4
:1050CC0012781343304A934240D1BB6B93F8E731CB
:1050DC001A06BB6B93F8E6311B041A43BB6B93F8AF
:1050EC00E5311B021343BA6B92F8E4211343274AB0
:1050FC0093422BD1BB6B93F8EB311A06BB6B93F835
:10510C00EA311B041A43BB6B93F8E9311B021343BE
:10511C00BA6B92F8E8211343BA6B02F58052136113
:10512C00BB6B93F8EF311A06BB6B93F8EE311B0493
:10513C001A43BB6B93F8ED311B021343BA6B92F815
:10514C00EC211343BA6B02F58052D360BB6B03F5B1
:10515C0080531A4697F8573013700D4B1B88013348
:10516C009AB20B4B1A800A4B1A88BB6B03F580530F
:10517C00DA80B86BFDF794FE002318465837BD460D
:10518C0080BD00BF55AAFFFF52526141727241614E
:10519C004411002080B584B000AF78607B68FB6060
:1051AC00FB68002B2AD0FB6803F580531B68002B8F
:1051BC0024D0FB6803F580531B6803F580531B78E0
:1051CC00002B1BD0FB6803F580531B6803F5805341
:1051DC00DA88FB6803F580539B889A420ED1FB68F2
:1051EC0003F580531B6803F580535B781846FDF775
:1051FC00ADFB034603F00103002B01D0092300E0B3
:10520C00002318461037BD4680BD000080B588B01D
:10521C0000AFF860B9601346FB71BB683B6107F1E6
:10522C0010031846FFF7D2FBF861FB69002B01DA7B
:10523C000B232FE0194AFB6952F82330BB61BB6981
:10524C00002B07D0B869FDF72BFEBB6903F5805323
:10525C0000221A70FB68002B04D0FB6803F5805306
:10526C0000221A70FA680D49FB6941F82320FB688B
:10527C00002B02D0FB79012B01D000230AE007F1AF
:10528C00080107F10C0300221846FFF751FC0346F6
:10529C00FB75FB7D18462037BD4680BD40110020B4
:1052AC0080B5ADF5825D86B000AF07F1580343F8C9
:1052BC004C0C07F1580343F8501C07F1580303F842
:1052CC00512C07F1580353F84C3C002B01D1092306
:1052DC00F3E207F1580353F84C3C03F580531A469C
:1052EC000023136007F158031A4607F1580313F80B
:1052FC00513C03F01F0302F8513C07F1580313F81B
:10530C00513C23F00103DAB207F11801103907F10F
:10531C003803183B03F580531846FFF709FC034686
:10532C0007F5825202F11702137007F5825303F14D
:10533C0017031B78002B40F0BB8207F158031A4669
:10534C0007F11803043BC2F8E03F07F158031A4673
:10535C00D34BC2F8E83F07F1580353F8502C07F130
:10536C003803183B11461846FFF7BAFA034607F5FF
:10537C00825202F11702137007F15803D3F8DC3F85
:10538C0007F5825202F11002136007F5825303F104
:10539C0017031B78002B24D107F5825303F110035C
:1053AC001B68002B06D1062307F5825202F1170267
:1053BC00137016E007F1580313F8513C012B8CBF06
:1053CC0001230023DBB21A4607F13803183B1146C0
:1053DC001846FDF7D1FB034607F5825202F117027E
:1053EC00137007F1580313F8513C03F01C03002B06
:1053FC0000F03C8107F5825303F117031B78002B57
:10540C002ED007F5825303F117031B78042B12D10E
:10541C00FDF722FC0346002B07D007F13803183B9D
:10542C001846FEF77BFF034600E0122307F5825275
:10543C0002F11702137007F158031A4607F15803CB
:10544C0013F8513C43F0080302F8513C07F15803A0
:10545C00D3F8DC3F07F5825202F1100213601FE013
:10546C0007F5825303F110031B680B331B7803F011
:10547C001103002B06D0072307F5825202F1170205
:10548C0013700DE007F1580313F8513C03F00403BB
:10549C00002B05D0082307F5825202F11702137076
:1054AC0007F5825303F117031B78002B40F013818F
:1054BC0007F1580313F8513C03F00803002B00F0DC
:1054CC000A81FDF7E1F907F5825303F10C0318602B
:1054DC0007F5825303F110031B680E3307F5825254
:1054EC0002F10C021268D2B21A7007F5825303F162
:1054FC000C031B689BB21B0A9AB207F5825303F18B
:10550C0010031B680F33D2B21A7007F5825303F1E4
:10551C000C031B681A0C07F5825303F110031B686C
:10552C001033D2B21A7007F5825303F10C031B68C7
:10553C001A0E07F5825303F110031B681133D2B214
:10554C001A7007F5825303F110031B680B3300220A
:10555C001A7007F5825303F110031B681C330022E9
:10556C001A7007F5825303F110031B681D330022D8
:10557C001A7007F5825303F110031B681E330022C7
:10558C001A7007F5825303F110031B681F330022B6
:10559C001A7007F15803D3F8C83F07F5825202F18D
:1055AC00100211681846FEF709FC07F5825303F147
:1055BC0008031860002107F5825303F110031868E3
:1055CC00FEF72AFC07F15803D3F8C83F03F58053C4
:1055DC0001221A7107F5825303F108031B68002B93
:1055EC0079D007F15803D3F8C83F03F58053DB6A31
:1055FC0007F5825202F10C02136007F15803D3F83D
:10560C00C83F07F5825202F1080211681846FEF7EE
:10561C0026F8034607F5825202F11702137007F5BC
:10562C00825303F117031B78002B54D107F1580355
:10563C00D3F8C82F07F5825303F108031B68013B0D
:10564C0002F58052D36007F15803D3F8C83F07F531
:10565C00825202F10C0211681846FDF79DFC0346BC
:10566C0007F5825202F11702137034E007F58253EA
:10567C0003F117031B78002B2DD107F5825303F18F
:10568C0010031B680B331B7803F01003002B09D09D
:10569C00042307F5825202F1170213701BE000BFBE
:1056AC006011002007F1580313F8513C03F002037A
:1056BC00002B10D007F5825303F110031B680B333A
:1056CC001B7803F00103002B05D0072307F582524A
:1056DC0002F11702137007F5825303F117031B78BD
:1056EC00002B55D107F1580313F8513C03F0080374
:1056FC00002B0AD007F158031A4607F1580313F888
:10570C00513C43F0200302F8513C07F15803D3F805
:10571C00C83F03F58053DB6A07F1580252F84C2C52
:10572C0002F58052D36107F1580353F84C3C03F552
:10573C0080531A4607F5825303F110031B6813625A
:10574C0007F1580313F8513C012B8CBF01230023A4
:10575C00DBB21A4607F13803183B11461846FDF721
:10576C009FFA024607F1580353F84C3C03F580535B
:10577C009A6207F1580353F84C3C03F580539B6A2B
:10578C00002B05D1022307F5825202F11702137088
:10579C0007F5825303F117031B78002B40F0888028
:1057AC0007F1580353F84C3C03F580531A4607F1A4
:1057BC00580313F8513C937107F1580353F84C3CC0
:1057CC0003F580530022DA7107F15803D3F8C83F70
:1057DC0007F5825202F1100211681846FEF7EEFA34
:1057EC00024607F1580353F84C3C03F580531A61F9
:1057FC0007F5825303F110031B681F331B781A063D
:10580C0007F5825303F110031B681E331B781B042E
:10581C001A4307F5825303F110031B681D331B78E1
:10582C001B02134307F5825202F1100212681C325C
:10583C001278134307F1580252F84C2C02F580529F
:10584C00D36007F1580353F84C3C03F580531A46C8
:10585C000023936007F1580353F84C3C03F5805335
:10586C001A460023936107F1580353F84C3C03F597
:10587C0080531A460023536207F15803D3F8C83FEC
:10588C0007F1580252F84C2C02F58052136007F1C4
:10589C00580353F84C3C03F580531B6803F58053B5
:1058AC00DA8807F1580353F84C3C03F580539A807F
:1058BC0007F5825303F117031B78184607F5825737
:1058CC001837BD4680BD00BF80B58AB000AFF86008
:1058DC00B9607A603B60BB68BB613B6800221A60B0
:1058EC00F868FFF757FC0346FB75FB7D002B01D0D6
:1058FC00FB7D1EE2FB6803F58053DB79002B04D0A3
:10590C00FB6803F58053DB7913E2FB6803F58053E6
:10591C009B7903F00203002B01D1072309E2FB68FA
:10592C0003F580539A687B681A44FB6803F580532F
:10593C009B689A4280F0D98100237B60D5E1FB689B
:10594C0003F580539B68FA6802F58052126802F5E1
:10595C0080525289B3FBF2F101FB02F29B1A002B2D
:10596C0040F06981FB6803F580539B68FA6802F587
:10597C008052126802F580525289B3FBF2F3DAB20C
:10598C00FB6803F580531B6803F580539B78013B40
:10599C00DBB21340BB75BB7D002B5FD1FB6803F5FD
:1059AC0080539B68002B11D1FB6803F580531B6956
:1059BC007B627B6A002B26D1FB6803F580531B6846
:1059CC0000211846FDF7ACFE78621CE0FB6803F57D
:1059DC0080535B6A002B09D0FB6803F580539B68EE
:1059EC001946F868FDF744FF78620CE0FB6803F594
:1059FC0080531A68FB6803F580535B69194610469F
:105A0C00FDF78EFE78627B6A002B00F073817B6A57
:105A1C00012B06D1FB6803F580530222DA710223B5
:105A2C0087E17B6AB3F1FF3F06D1FB6803F5805336
:105A3C000122DA7101237CE1FB6803F580531A46DD
:105A4C007B6A5361FB6803F580531B69002B05D1FE
:105A5C00FB6803F580531A467B6A1361FB6803F5F8
:105A6C0080539B7903F04003002B23D0FB6803F594
:105A7C0080531B6803F580535878F968FB6803F56D
:105A8C0080539A690123FCF7C1FF0346002B06D013
:105A9C00FB6803F580530122DA71012349E1FB68AD
:105AAC0003F580539B7923F04003DAB2FB6803F5CE
:105ABC0080539A71FB6803F580531A68FB6803F5F1
:105ACC0080535B6919461046FDF757FB38613B69FB
